{
  "_format": "hh-sol-artifact-1",
  "contractName": "BlockTalk",
  "sourceName": "contracts/BlockTalk.sol",
  "abi": [
    {
      "inputs": [
        {
          "internalType": "address",
          "name": "sender",
          "type": "address"
        },
        {
          "internalType": "uint256",
          "name": "tokenId",
          "type": "uint256"
        },
        {
          "internalType": "address",
          "name": "owner",
          "type": "address"
        }
      ],
      "name": "ERC721IncorrectOwner",
      "type": "error"
    },
    {
      "inputs": [
        {
          "internalType": "address",
          "name": "operator",
          "type": "address"
        },
        {
          "internalType": "uint256",
          "name": "tokenId",
          "type": "uint256"
        }
      ],
      "name": "ERC721InsufficientApproval",
      "type": "error"
    },
    {
      "inputs": [
        {
          "internalType": "address",
          "name": "approver",
          "type": "address"
        }
      ],
      "name": "ERC721InvalidApprover",
      "type": "error"
    },
    {
      "inputs": [
        {
          "internalType": "address",
          "name": "operator",
          "type": "address"
        }
      ],
      "name": "ERC721InvalidOperator",
      "type": "error"
    },
    {
      "inputs": [
        {
          "internalType": "address",
          "name": "owner",
          "type": "address"
        }
      ],
      "name": "ERC721InvalidOwner",
      "type": "error"
    },
    {
      "inputs": [
        {
          "internalType": "address",
          "name": "receiver",
          "type": "address"
        }
      ],
      "name": "ERC721InvalidReceiver",
      "type": "error"
    },
    {
      "inputs": [
        {
          "internalType": "address",
          "name": "sender",
          "type": "address"
        }
      ],
      "name": "ERC721InvalidSender",
      "type": "error"
    },
    {
      "inputs": [
        {
          "internalType": "uint256",
          "name": "tokenId",
          "type": "uint256"
        }
      ],
      "name": "ERC721NonexistentToken",
      "type": "error"
    },
    {
      "inputs": [],
      "name": "InvalidInitialization",
      "type": "error"
    },
    {
      "inputs": [],
      "name": "NotInitializing",
      "type": "error"
    },
    {
      "inputs": [
        {
          "internalType": "address",
          "name": "owner",
          "type": "address"
        }
      ],
      "name": "OwnableInvalidOwner",
      "type": "error"
    },
    {
      "inputs": [
        {
          "internalType": "address",
          "name": "account",
          "type": "address"
        }
      ],
      "name": "OwnableUnauthorizedAccount",
      "type": "error"
    },
    {
      "anonymous": false,
      "inputs": [
        {
          "indexed": true,
          "internalType": "address",
          "name": "owner",
          "type": "address"
        },
        {
          "indexed": true,
          "internalType": "address",
          "name": "approved",
          "type": "address"
        },
        {
          "indexed": true,
          "internalType": "uint256",
          "name": "tokenId",
          "type": "uint256"
        }
      ],
      "name": "Approval",
      "type": "event"
    },
    {
      "anonymous": false,
      "inputs": [
        {
          "indexed": true,
          "internalType": "address",
          "name": "owner",
          "type": "address"
        },
        {
          "indexed": true,
          "internalType": "address",
          "name": "operator",
          "type": "address"
        },
        {
          "indexed": false,
          "internalType": "bool",
          "name": "approved",
          "type": "bool"
        }
      ],
      "name": "ApprovalForAll",
      "type": "event"
    },
    {
      "anonymous": false,
      "inputs": [
        {
          "indexed": false,
          "internalType": "uint64",
          "name": "version",
          "type": "uint64"
        }
      ],
      "name": "Initialized",
      "type": "event"
    },
    {
      "anonymous": false,
      "inputs": [
        {
          "indexed": true,
          "internalType": "address",
          "name": "previousOwner",
          "type": "address"
        },
        {
          "indexed": true,
          "internalType": "address",
          "name": "newOwner",
          "type": "address"
        }
      ],
      "name": "OwnershipTransferred",
      "type": "event"
    },
    {
      "anonymous": false,
      "inputs": [
        {
          "indexed": true,
          "internalType": "address",
          "name": "from",
          "type": "address"
        },
        {
          "indexed": true,
          "internalType": "address",
          "name": "to",
          "type": "address"
        },
        {
          "indexed": true,
          "internalType": "uint256",
          "name": "tokenId",
          "type": "uint256"
        }
      ],
      "name": "Transfer",
      "type": "event"
    },
    {
      "inputs": [],
      "name": "MAX_SUPPLY",
      "outputs": [
        {
          "internalType": "uint256",
          "name": "",
          "type": "uint256"
        }
      ],
      "stateMutability": "view",
      "type": "function"
    },
    {
      "inputs": [
        {
          "internalType": "address",
          "name": "to",
          "type": "address"
        },
        {
          "internalType": "uint256",
          "name": "tokenId",
          "type": "uint256"
        }
      ],
      "name": "approve",
      "outputs": [],
      "stateMutability": "nonpayable",
      "type": "function"
    },
    {
      "inputs": [
        {
          "internalType": "address",
          "name": "owner",
          "type": "address"
        }
      ],
      "name": "balanceOf",
      "outputs": [
        {
          "internalType": "uint256",
          "name": "",
          "type": "uint256"
        }
      ],
      "stateMutability": "view",
      "type": "function"
    },
    {
      "inputs": [
        {
          "internalType": "uint256",
          "name": "tokenId",
          "type": "uint256"
        },
        {
          "internalType": "string",
          "name": "newUsername",
          "type": "string"
        }
      ],
      "name": "changeUsername",
      "outputs": [],
      "stateMutability": "nonpayable",
      "type": "function"
    },
    {
      "inputs": [],
      "name": "feeRecipient",
      "outputs": [
        {
          "internalType": "address payable",
          "name": "",
          "type": "address"
        }
      ],
      "stateMutability": "view",
      "type": "function"
    },
    {
      "inputs": [
        {
          "internalType": "uint256",
          "name": "tokenId",
          "type": "uint256"
        }
      ],
      "name": "getApproved",
      "outputs": [
        {
          "internalType": "address",
          "name": "",
          "type": "address"
        }
      ],
      "stateMutability": "view",
      "type": "function"
    },
    {
      "inputs": [
        {
          "internalType": "uint256",
          "name": "tokenId",
          "type": "uint256"
        }
      ],
      "name": "getUsername",
      "outputs": [
        {
          "internalType": "string",
          "name": "",
          "type": "string"
        }
      ],
      "stateMutability": "view",
      "type": "function"
    },
    {
      "inputs": [],
      "name": "initialize",
      "outputs": [],
      "stateMutability": "nonpayable",
      "type": "function"
    },
    {
      "inputs": [
        {
          "internalType": "address",
          "name": "owner",
          "type": "address"
        },
        {
          "internalType": "address",
          "name": "operator",
          "type": "address"
        }
      ],
      "name": "isApprovedForAll",
      "outputs": [
        {
          "internalType": "bool",
          "name": "",
          "type": "bool"
        }
      ],
      "stateMutability": "view",
      "type": "function"
    },
    {
      "inputs": [
        {
          "internalType": "string",
          "name": "username",
          "type": "string"
        }
      ],
      "name": "mint",
      "outputs": [],
      "stateMutability": "payable",
      "type": "function"
    },
    {
      "inputs": [],
      "name": "mintPrice",
      "outputs": [
        {
          "internalType": "uint256",
          "name": "",
          "type": "uint256"
        }
      ],
      "stateMutability": "view",
      "type": "function"
    },
    {
      "inputs": [],
      "name": "name",
      "outputs": [
        {
          "internalType": "string",
          "name": "",
          "type": "string"
        }
      ],
      "stateMutability": "view",
      "type": "function"
    },
    {
      "inputs": [],
      "name": "owner",
      "outputs": [
        {
          "internalType": "address",
          "name": "",
          "type": "address"
        }
      ],
      "stateMutability": "view",
      "type": "function"
    },
    {
      "inputs": [
        {
          "internalType": "uint256",
          "name": "tokenId",
          "type": "uint256"
        }
      ],
      "name": "ownerOf",
      "outputs": [
        {
          "internalType": "address",
          "name": "",
          "type": "address"
        }
      ],
      "stateMutability": "view",
      "type": "function"
    },
    {
      "inputs": [],
      "name": "renounceOwnership",
      "outputs": [],
      "stateMutability": "nonpayable",
      "type": "function"
    },
    {
      "inputs": [
        {
          "internalType": "address",
          "name": "from",
          "type": "address"
        },
        {
          "internalType": "address",
          "name": "to",
          "type": "address"
        },
        {
          "internalType": "uint256",
          "name": "tokenId",
          "type": "uint256"
        }
      ],
      "name": "safeTransferFrom",
      "outputs": [],
      "stateMutability": "nonpayable",
      "type": "function"
    },
    {
      "inputs": [
        {
          "internalType": "address",
          "name": "from",
          "type": "address"
        },
        {
          "internalType": "address",
          "name": "to",
          "type": "address"
        },
        {
          "internalType": "uint256",
          "name": "tokenId",
          "type": "uint256"
        },
        {
          "internalType": "bytes",
          "name": "data",
          "type": "bytes"
        }
      ],
      "name": "safeTransferFrom",
      "outputs": [],
      "stateMutability": "nonpayable",
      "type": "function"
    },
    {
      "inputs": [
        {
          "internalType": "address",
          "name": "operator",
          "type": "address"
        },
        {
          "internalType": "bool",
          "name": "approved",
          "type": "bool"
        }
      ],
      "name": "setApprovalForAll",
      "outputs": [],
      "stateMutability": "nonpayable",
      "type": "function"
    },
    {
      "inputs": [
        {
          "internalType": "address payable",
          "name": "newRecipient",
          "type": "address"
        }
      ],
      "name": "setFeeRecipient",
      "outputs": [],
      "stateMutability": "nonpayable",
      "type": "function"
    },
    {
      "inputs": [
        {
          "internalType": "uint256",
          "name": "newFee",
          "type": "uint256"
        }
      ],
      "name": "setTransferFee",
      "outputs": [],
      "stateMutability": "nonpayable",
      "type": "function"
    },
    {
      "inputs": [
        {
          "internalType": "bytes4",
          "name": "interfaceId",
          "type": "bytes4"
        }
      ],
      "name": "supportsInterface",
      "outputs": [
        {
          "internalType": "bool",
          "name": "",
          "type": "bool"
        }
      ],
      "stateMutability": "view",
      "type": "function"
    },
    {
      "inputs": [],
      "name": "symbol",
      "outputs": [
        {
          "internalType": "string",
          "name": "",
          "type": "string"
        }
      ],
      "stateMutability": "view",
      "type": "function"
    },
    {
      "inputs": [
        {
          "internalType": "uint256",
          "name": "tokenId",
          "type": "uint256"
        }
      ],
      "name": "tokenURI",
      "outputs": [
        {
          "internalType": "string",
          "name": "",
          "type": "string"
        }
      ],
      "stateMutability": "view",
      "type": "function"
    },
    {
      "inputs": [],
      "name": "totalSupply",
      "outputs": [
        {
          "internalType": "uint256",
          "name": "",
          "type": "uint256"
        }
      ],
      "stateMutability": "view",
      "type": "function"
    },
    {
      "inputs": [],
      "name": "transferFee",
      "outputs": [
        {
          "internalType": "uint256",
          "name": "",
          "type": "uint256"
        }
      ],
      "stateMutability": "view",
      "type": "function"
    },
    {
      "inputs": [
        {
          "internalType": "address",
          "name": "from",
          "type": "address"
        },
        {
          "internalType": "address",
          "name": "to",
          "type": "address"
        },
        {
          "internalType": "uint256",
          "name": "tokenId",
          "type": "uint256"
        }
      ],
      "name": "transferFrom",
      "outputs": [],
      "stateMutability": "nonpayable",
      "type": "function"
    },
    {
      "inputs": [
        {
          "internalType": "address",
          "name": "newOwner",
          "type": "address"
        }
      ],
      "name": "transferOwnership",
      "outputs": [],
      "stateMutability": "nonpayable",
      "type": "function"
    }
  ],
  "bytecode": "0x60806040526611c37937e0800060005566038d7ea4c6800060015534801561002657600080fd5b5061339d806100366000396000f3fe60806040526004361061019c5760003560e01c806372d4e382116100ec578063b88d4fde1161008a578063e74b981b11610064578063e74b981b14610593578063e985e9c5146105bc578063f18d18cc146105f9578063f2fde38b146106365761019c565b8063b88d4fde14610511578063c87b56dd1461053a578063d85d3d27146105775761019c565b80638f02bb5b116100c65780638f02bb5b1461046957806395d89b4114610492578063a22cb465146104bd578063acb2ad6f146104e65761019c565b806372d4e382146103fe5780638129fc1c146104275780638da5cb5b1461043e5761019c565b806332cb6b0c116101595780636352211e116101335780636352211e146103425780636817c76c1461037f57806370a08231146103aa578063715018a6146103e75761019c565b806332cb6b0c146102c357806342842e0e146102ee57806346904840146103175761019c565b806301ffc9a7146101a157806306fdde03146101de578063081812fc14610209578063095ea7b31461024657806318160ddd1461026f57806323b872dd1461029a575b600080fd5b3480156101ad57600080fd5b506101c860048036038101906101c39190612491565b61065f565b6040516101d591906124d9565b60405180910390f35b3480156101ea57600080fd5b506101f3610741565b6040516102009190612584565b60405180910390f35b34801561021557600080fd5b50610230600480360381019061022b91906125dc565b6107e2565b60405161023d919061264a565b60405180910390f35b34801561025257600080fd5b5061026d60048036038101906102689190612691565b6107fe565b005b34801561027b57600080fd5b50610284610814565b60405161029191906126e0565b60405180910390f35b3480156102a657600080fd5b506102c160048036038101906102bc91906126fb565b61081a565b005b3480156102cf57600080fd5b506102d861091c565b6040516102e591906126e0565b60405180910390f35b3480156102fa57600080fd5b50610315600480360381019061031091906126fb565b610922565b005b34801561032357600080fd5b5061032c610942565b604051610339919061276f565b60405180910390f35b34801561034e57600080fd5b50610369600480360381019061036491906125dc565b610968565b604051610376919061264a565b60405180910390f35b34801561038b57600080fd5b5061039461097a565b6040516103a191906126e0565b60405180910390f35b3480156103b657600080fd5b506103d160048036038101906103cc919061278a565b610980565b6040516103de91906126e0565b60405180910390f35b3480156103f357600080fd5b506103fc610a49565b005b34801561040a57600080fd5b50610425600480360381019061042091906128ec565b610a5d565b005b34801561043357600080fd5b5061043c610b26565b005b34801561044a57600080fd5b50610453610d69565b604051610460919061264a565b60405180910390f35b34801561047557600080fd5b50610490600480360381019061048b91906125dc565b610da1565b005b34801561049e57600080fd5b506104a7610db3565b6040516104b49190612584565b60405180910390f35b3480156104c957600080fd5b506104e460048036038101906104df9190612974565b610e54565b005b3480156104f257600080fd5b506104fb610e6a565b60405161050891906126e0565b60405180910390f35b34801561051d57600080fd5b5061053860048036038101906105339190612a55565b610e70565b005b34801561054657600080fd5b50610561600480360381019061055c91906125dc565b610e8d565b60405161056e9190612584565b60405180910390f35b610591600480360381019061058c9190612ad8565b610ef6565b005b34801561059f57600080fd5b506105ba60048036038101906105b59190612b4d565b61110f565b005b3480156105c857600080fd5b506105e360048036038101906105de9190612b7a565b61115b565b6040516105f091906124d9565b60405180910390f35b34801561060557600080fd5b50610620600480360381019061061b91906125dc565b6111fd565b60405161062d9190612584565b60405180910390f35b34801561064257600080fd5b5061065d6004803603810190610658919061278a565b6112af565b005b60007f80ac58cd000000000000000000000000000000000000000000000000000000007bffffffffffffffffffffffffffffffffffffffffffffffffffffffff1916827bffffffffffffffffffffffffffffffffffffffffffffffffffffffff1916148061072a57507f5b5e139f000000000000000000000000000000000000000000000000000000007bffffffffffffffffffffffffffffffffffffffffffffffffffffffff1916827bffffffffffffffffffffffffffffffffffffffffffffffffffffffff1916145b8061073a575061073982611335565b5b9050919050565b6060600061074d61139f565b905080600001805461075e90612be9565b80601f016020809104026020016040519081016040528092919081815260200182805461078a90612be9565b80156107d75780601f106107ac576101008083540402835291602001916107d7565b820191906000526020600020905b8154815290600101906020018083116107ba57829003601f168201915b505050505091505090565b60006107ed826113c7565b506107f78261144f565b9050919050565b610810828261080b61149a565b6114a2565b5050565b60035481565b600073ffffffffffffffffffffffffffffffffffffffff168273ffffffffffffffffffffffffffffffffffffffff160361088c5760006040517f64a0ae92000000000000000000000000000000000000000000000000000000008152600401610883919061264a565b60405180910390fd5b60006108a0838361089b61149a565b6114b4565b90508373ffffffffffffffffffffffffffffffffffffffff168173ffffffffffffffffffffffffffffffffffffffff1614610916578382826040517f64283d7b00000000000000000000000000000000000000000000000000000000815260040161090d93929190612c1a565b60405180910390fd5b50505050565b614e2081565b61093d83838360405180602001604052806000815250610e70565b505050565b600260009054906101000a900473ffffffffffffffffffffffffffffffffffffffff1681565b6000610973826113c7565b9050919050565b60005481565b60008061098b61139f565b9050600073ffffffffffffffffffffffffffffffffffffffff168373ffffffffffffffffffffffffffffffffffffffff16036109ff5760006040517f89c62b640000000000000000000000000000000000000000000000000000000081526004016109f6919061264a565b60405180910390fd5b8060030160008473ffffffffffffffffffffffffffffffffffffffff1673ffffffffffffffffffffffffffffffffffffffff16815260200190815260200160002054915050919050565b610a516116e1565b610a5b6000611768565b565b3373ffffffffffffffffffffffffffffffffffffffff16610a7d83610968565b73ffffffffffffffffffffffffffffffffffffffff1614610ad3576040517f08c379a0000000000000000000000000000000000000000000000000000000008152600401610aca90612c9d565b60405180910390fd5b601481511115610b18576040517f08c379a0000000000000000000000000000000000000000000000000000000008152600401610b0f90612d09565b60405180910390fd5b610b22828261183f565b5050565b6000610b3061187e565b905060008160000160089054906101000a900460ff1615905060008260000160009054906101000a900467ffffffffffffffff1690506000808267ffffffffffffffff16148015610b7e5750825b9050600060018367ffffffffffffffff16148015610bb3575060003073ffffffffffffffffffffffffffffffffffffffff163b145b905081158015610bc1575080155b15610bf8576040517ff92ee8a900000000000000000000000000000000000000000000000000000000815260040160405180910390fd5b60018560000160006101000a81548167ffffffffffffffff021916908367ffffffffffffffff1602179055508315610c485760018560000160086101000a81548160ff0219169083151502179055505b610cbc6040518060400160405280600981526020017f426c6f636b54616c6b00000000000000000000000000000000000000000000008152506040518060400160405280600581526020017f4254414c4b0000000000000000000000000000000000000000000000000000008152506118a6565b610cc5336118bc565b33600260006101000a81548173ffffffffffffffffffffffffffffffffffffffff021916908373ffffffffffffffffffffffffffffffffffffffff1602179055508315610d625760008560000160086101000a81548160ff0219169083151502179055507fc7f505b2f371ae2175ee4913f4499e1f2633a7b5936321eed1cdaeb6115181d26001604051610d599190612d82565b60405180910390a15b5050505050565b600080610d746118d0565b90508060000160009054906101000a900473ffffffffffffffffffffffffffffffffffffffff1691505090565b610da96116e1565b8060018190555050565b60606000610dbf61139f565b9050806001018054610dd090612be9565b80601f0160208091040260200160405190810160405280929190818152602001828054610dfc90612be9565b8015610e495780601f10610e1e57610100808354040283529160200191610e49565b820191906000526020600020905b815481529060010190602001808311610e2c57829003601f168201915b505050505091505090565b610e66610e5f61149a565b83836118f8565b5050565b60015481565b610e7b84848461081a565b610e8784848484611a76565b50505050565b6060610e98826113c7565b506000610ea3611c2d565b90506000815111610ec35760405180602001604052806000815250610eee565b80610ecd84611c44565b604051602001610ede929190612dd9565b6040516020818303038152906040525b915050919050565b614e2060035410610f3c576040517f08c379a0000000000000000000000000000000000000000000000000000000008152600401610f3390612e49565b60405180910390fd5b6000600560003373ffffffffffffffffffffffffffffffffffffffff1673ffffffffffffffffffffffffffffffffffffffff1681526020019081526020016000205414610fbe576040517f08c379a0000000000000000000000000000000000000000000000000000000008152600401610fb590612eb5565b60405180910390fd5b600054341015611003576040517f08c379a0000000000000000000000000000000000000000000000000000000008152600401610ffa90612f21565b60405180910390fd5b601481511115611048576040517f08c379a000000000000000000000000000000000000000000000000000000000815260040161103f90612d09565b60405180910390fd5b6003600081548092919061105b90612f70565b919050555061106c33600354611d12565b6110786003548261183f565b600354600560003373ffffffffffffffffffffffffffffffffffffffff1673ffffffffffffffffffffffffffffffffffffffff168152602001908152602001600020819055506110c6610d69565b73ffffffffffffffffffffffffffffffffffffffff166108fc349081150290604051600060405180830381858888f1935050505015801561110b573d6000803e3d6000fd5b5050565b6111176116e1565b80600260006101000a81548173ffffffffffffffffffffffffffffffffffffffff021916908373ffffffffffffffffffffffffffffffffffffffff16021790555050565b60008061116661139f565b90508060050160008573ffffffffffffffffffffffffffffffffffffffff1673ffffffffffffffffffffffffffffffffffffffff16815260200190815260200160002060008473ffffffffffffffffffffffffffffffffffffffff1673ffffffffffffffffffffffffffffffffffffffff16815260200190815260200160002060009054906101000a900460ff1691505092915050565b606061120882610968565b5060046000838152602001908152602001600020600001805461122a90612be9565b80601f016020809104026020016040519081016040528092919081815260200182805461125690612be9565b80156112a35780601f10611278576101008083540402835291602001916112a3565b820191906000526020600020905b81548152906001019060200180831161128657829003601f168201915b50505050509050919050565b6112b76116e1565b600073ffffffffffffffffffffffffffffffffffffffff168173ffffffffffffffffffffffffffffffffffffffff16036113295760006040517f1e4fbdf7000000000000000000000000000000000000000000000000000000008152600401611320919061264a565b60405180910390fd5b61133281611768565b50565b60007f01ffc9a7000000000000000000000000000000000000000000000000000000007bffffffffffffffffffffffffffffffffffffffffffffffffffffffff1916827bffffffffffffffffffffffffffffffffffffffffffffffffffffffff1916149050919050565b60007f80bb2b638cc20bc4d0a60d66940f3ab4a00c1d7b313497ca82fb0b4ab0079300905090565b6000806113d383611e0b565b9050600073ffffffffffffffffffffffffffffffffffffffff168173ffffffffffffffffffffffffffffffffffffffff160361144657826040517f7e27328900000000000000000000000000000000000000000000000000000000815260040161143d91906126e0565b60405180910390fd5b80915050919050565b60008061145a61139f565b905080600401600084815260200190815260200160002060009054906101000a900473ffffffffffffffffffffffffffffffffffffffff16915050919050565b600033905090565b6114af8383836001611e56565b505050565b6000806114bf61139f565b905060006114cc85611e0b565b9050600073ffffffffffffffffffffffffffffffffffffffff168473ffffffffffffffffffffffffffffffffffffffff161461150e5761150d81858761202a565b5b600073ffffffffffffffffffffffffffffffffffffffff168173ffffffffffffffffffffffffffffffffffffffff16146115a157611550600086600080611e56565b60018260030160008373ffffffffffffffffffffffffffffffffffffffff1673ffffffffffffffffffffffffffffffffffffffff168152602001908152602001600020600082825403925050819055505b600073ffffffffffffffffffffffffffffffffffffffff168673ffffffffffffffffffffffffffffffffffffffff16146116265760018260030160008873ffffffffffffffffffffffffffffffffffffffff1673ffffffffffffffffffffffffffffffffffffffff168152602001908152602001600020600082825401925050819055505b8582600201600087815260200190815260200160002060006101000a81548173ffffffffffffffffffffffffffffffffffffffff021916908373ffffffffffffffffffffffffffffffffffffffff160217905550848673ffffffffffffffffffffffffffffffffffffffff168273ffffffffffffffffffffffffffffffffffffffff167fddf252ad1be2c89b69c2b068fc378daa952ba7f163c4a11628f55a4df523b3ef60405160405180910390a480925050509392505050565b6116e961149a565b73ffffffffffffffffffffffffffffffffffffffff16611707610d69565b73ffffffffffffffffffffffffffffffffffffffff16146117665761172a61149a565b6040517f118cdaa700000000000000000000000000000000000000000000000000000000815260040161175d919061264a565b60405180910390fd5b565b60006117726118d0565b905060008160000160009054906101000a900473ffffffffffffffffffffffffffffffffffffffff169050828260000160006101000a81548173ffffffffffffffffffffffffffffffffffffffff021916908373ffffffffffffffffffffffffffffffffffffffff1602179055508273ffffffffffffffffffffffffffffffffffffffff168173ffffffffffffffffffffffffffffffffffffffff167f8be0079c531659141344cd1fd0a4f28419497f9722a3daafe3b4186f6b6457e060405160405180910390a3505050565b604051806020016040528082815250600460008481526020019081526020016000206000820151816000019081611876919061315a565b509050505050565b60007ff0c57e16840df040f15088dc2f81fe391c3923bec73e23a9662efc9c229c6a00905090565b6118ae6120ee565b6118b8828261212e565b5050565b6118c46120ee565b6118cd8161216b565b50565b60007f9016d09d72d40fdae2fd8ceac6b6234c7706214fd39c1cd1e609a0528c199300905090565b600061190261139f565b9050600073ffffffffffffffffffffffffffffffffffffffff168373ffffffffffffffffffffffffffffffffffffffff160361197557826040517f5b08ba1800000000000000000000000000000000000000000000000000000000815260040161196c919061264a565b60405180910390fd5b818160050160008673ffffffffffffffffffffffffffffffffffffffff1673ffffffffffffffffffffffffffffffffffffffff16815260200190815260200160002060008573ffffffffffffffffffffffffffffffffffffffff1673ffffffffffffffffffffffffffffffffffffffff16815260200190815260200160002060006101000a81548160ff0219169083151502179055508273ffffffffffffffffffffffffffffffffffffffff168473ffffffffffffffffffffffffffffffffffffffff167f17307eab39ab6107e8899845ad3d59bd9653f200f220920489ca2b5937696c3184604051611a6891906124d9565b60405180910390a350505050565b60008373ffffffffffffffffffffffffffffffffffffffff163b1115611c27578273ffffffffffffffffffffffffffffffffffffffff1663150b7a02611aba61149a565b8685856040518563ffffffff1660e01b8152600401611adc9493929190613281565b6020604051808303816000875af1925050508015611b1857506040513d601f19601f82011682018060405250810190611b1591906132e2565b60015b611b9c573d8060008114611b48576040519150601f19603f3d011682016040523d82523d6000602084013e611b4d565b606091505b506000815103611b9457836040517f64a0ae92000000000000000000000000000000000000000000000000000000008152600401611b8b919061264a565b60405180910390fd5b805181602001fd5b63150b7a0260e01b7bffffffffffffffffffffffffffffffffffffffffffffffffffffffff1916817bffffffffffffffffffffffffffffffffffffffffffffffffffffffff191614611c2557836040517f64a0ae92000000000000000000000000000000000000000000000000000000008152600401611c1c919061264a565b60405180910390fd5b505b50505050565b606060405180602001604052806000815250905090565b606060006001611c53846121f1565b01905060008167ffffffffffffffff811115611c7257611c716127c1565b5b6040519080825280601f01601f191660200182016040528015611ca45781602001600182028036833780820191505090505b509050600082602001820190505b600115611d07578080600190039150507f3031323334353637383961626364656600000000000000000000000000000000600a86061a8153600a8581611cfb57611cfa61330f565b5b04945060008503611cb2575b819350505050919050565b600073ffffffffffffffffffffffffffffffffffffffff168273ffffffffffffffffffffffffffffffffffffffff1603611d845760006040517f64a0ae92000000000000000000000000000000000000000000000000000000008152600401611d7b919061264a565b60405180910390fd5b6000611d92838360006114b4565b9050600073ffffffffffffffffffffffffffffffffffffffff168173ffffffffffffffffffffffffffffffffffffffff1614611e065760006040517f73c6ac6e000000000000000000000000000000000000000000000000000000008152600401611dfd919061264a565b60405180910390fd5b505050565b600080611e1661139f565b905080600201600084815260200190815260200160002060009054906101000a900473ffffffffffffffffffffffffffffffffffffffff16915050919050565b6000611e6061139f565b90508180611e9b5750600073ffffffffffffffffffffffffffffffffffffffff168373ffffffffffffffffffffffffffffffffffffffff1614155b15611fcf576000611eab856113c7565b9050600073ffffffffffffffffffffffffffffffffffffffff168473ffffffffffffffffffffffffffffffffffffffff1614158015611f1657508373ffffffffffffffffffffffffffffffffffffffff168173ffffffffffffffffffffffffffffffffffffffff1614155b8015611f295750611f27818561115b565b155b15611f6b57836040517fa9fbf51f000000000000000000000000000000000000000000000000000000008152600401611f62919061264a565b60405180910390fd5b8215611fcd57848673ffffffffffffffffffffffffffffffffffffffff168273ffffffffffffffffffffffffffffffffffffffff167f8c5be1e5ebec7d5bd14f71427d1e84f3dd0314c0f7b2291e5b200ac8c7c3b92560405160405180910390a45b505b8481600401600086815260200190815260200160002060006101000a81548173ffffffffffffffffffffffffffffffffffffffff021916908373ffffffffffffffffffffffffffffffffffffffff1602179055505050505050565b612035838383612344565b6120e957600073ffffffffffffffffffffffffffffffffffffffff168373ffffffffffffffffffffffffffffffffffffffff16036120aa57806040517f7e2732890000000000000000000000000000000000000000000000000000000081526004016120a191906126e0565b60405180910390fd5b81816040517f177e802f0000000000000000000000000000000000000000000000000000000081526004016120e092919061333e565b60405180910390fd5b505050565b6120f6612405565b61212c576040517fd7e6bcf800000000000000000000000000000000000000000000000000000000815260040160405180910390fd5b565b6121366120ee565b600061214061139f565b905082816000019081612153919061315a565b5081816001019081612165919061315a565b50505050565b6121736120ee565b600073ffffffffffffffffffffffffffffffffffffffff168173ffffffffffffffffffffffffffffffffffffffff16036121e55760006040517f1e4fbdf70000000000000000000000000000000000000000000000000000000081526004016121dc919061264a565b60405180910390fd5b6121ee81611768565b50565b600080600090507a184f03e93ff9f4daa797ed6e38ed64bf6a1f010000000000000000831061224f577a184f03e93ff9f4daa797ed6e38ed64bf6a1f01000000000000000083816122455761224461330f565b5b0492506040810190505b6d04ee2d6d415b85acef8100000000831061228c576d04ee2d6d415b85acef810000000083816122825761228161330f565b5b0492506020810190505b662386f26fc1000083106122bb57662386f26fc1000083816122b1576122b061330f565b5b0492506010810190505b6305f5e10083106122e4576305f5e10083816122da576122d961330f565b5b0492506008810190505b61271083106123095761271083816122ff576122fe61330f565b5b0492506004810190505b6064831061232c57606483816123225761232161330f565b5b0492506002810190505b600a831061233b576001810190505b80915050919050565b60008073ffffffffffffffffffffffffffffffffffffffff168373ffffffffffffffffffffffffffffffffffffffff16141580156123fc57508273ffffffffffffffffffffffffffffffffffffffff168473ffffffffffffffffffffffffffffffffffffffff1614806123bd57506123bc848461115b565b5b806123fb57508273ffffffffffffffffffffffffffffffffffffffff166123e38361144f565b73ffffffffffffffffffffffffffffffffffffffff16145b5b90509392505050565b600061240f61187e565b60000160089054906101000a900460ff16905090565b6000604051905090565b600080fd5b600080fd5b60007fffffffff0000000000000000000000000000000000000000000000000000000082169050919050565b61246e81612439565b811461247957600080fd5b50565b60008135905061248b81612465565b92915050565b6000602082840312156124a7576124a661242f565b5b60006124b58482850161247c565b91505092915050565b60008115159050919050565b6124d3816124be565b82525050565b60006020820190506124ee60008301846124ca565b92915050565b600081519050919050565b600082825260208201905092915050565b60005b8381101561252e578082015181840152602081019050612513565b60008484015250505050565b6000601f19601f8301169050919050565b6000612556826124f4565b61256081856124ff565b9350612570818560208601612510565b6125798161253a565b840191505092915050565b6000602082019050818103600083015261259e818461254b565b905092915050565b6000819050919050565b6125b9816125a6565b81146125c457600080fd5b50565b6000813590506125d6816125b0565b92915050565b6000602082840312156125f2576125f161242f565b5b6000612600848285016125c7565b91505092915050565b600073ffffffffffffffffffffffffffffffffffffffff82169050919050565b600061263482612609565b9050919050565b61264481612629565b82525050565b600060208201905061265f600083018461263b565b92915050565b61266e81612629565b811461267957600080fd5b50565b60008135905061268b81612665565b92915050565b600080604083850312156126a8576126a761242f565b5b60006126b68582860161267c565b92505060206126c7858286016125c7565b9150509250929050565b6126da816125a6565b82525050565b60006020820190506126f560008301846126d1565b92915050565b6000806000606084860312156127145761271361242f565b5b60006127228682870161267c565b93505060206127338682870161267c565b9250506040612744868287016125c7565b9150509250925092565b600061275982612609565b9050919050565b6127698161274e565b82525050565b60006020820190506127846000830184612760565b92915050565b6000602082840312156127a05761279f61242f565b5b60006127ae8482850161267c565b91505092915050565b600080fd5b600080fd5b7f4e487b7100000000000000000000000000000000000000000000000000000000600052604160045260246000fd5b6127f98261253a565b810181811067ffffffffffffffff82111715612818576128176127c1565b5b80604052505050565b600061282b612425565b905061283782826127f0565b919050565b600067ffffffffffffffff821115612857576128566127c1565b5b6128608261253a565b9050602081019050919050565b82818337600083830152505050565b600061288f61288a8461283c565b612821565b9050828152602081018484840111156128ab576128aa6127bc565b5b6128b684828561286d565b509392505050565b600082601f8301126128d3576128d26127b7565b5b81356128e384826020860161287c565b91505092915050565b600080604083850312156129035761290261242f565b5b6000612911858286016125c7565b925050602083013567ffffffffffffffff81111561293257612931612434565b5b61293e858286016128be565b9150509250929050565b612951816124be565b811461295c57600080fd5b50565b60008135905061296e81612948565b92915050565b6000806040838503121561298b5761298a61242f565b5b60006129998582860161267c565b92505060206129aa8582860161295f565b9150509250929050565b600067ffffffffffffffff8211156129cf576129ce6127c1565b5b6129d88261253a565b9050602081019050919050565b60006129f86129f3846129b4565b612821565b905082815260208101848484011115612a1457612a136127bc565b5b612a1f84828561286d565b509392505050565b600082601f830112612a3c57612a3b6127b7565b5b8135612a4c8482602086016129e5565b91505092915050565b60008060008060808587031215612a6f57612a6e61242f565b5b6000612a7d8782880161267c565b9450506020612a8e8782880161267c565b9350506040612a9f878288016125c7565b925050606085013567ffffffffffffffff811115612ac057612abf612434565b5b612acc87828801612a27565b91505092959194509250565b600060208284031215612aee57612aed61242f565b5b600082013567ffffffffffffffff811115612b0c57612b0b612434565b5b612b18848285016128be565b91505092915050565b612b2a8161274e565b8114612b3557600080fd5b50565b600081359050612b4781612b21565b92915050565b600060208284031215612b6357612b6261242f565b5b6000612b7184828501612b38565b91505092915050565b60008060408385031215612b9157612b9061242f565b5b6000612b9f8582860161267c565b9250506020612bb08582860161267c565b9150509250929050565b7f4e487b7100000000000000000000000000000000000000000000000000000000600052602260045260246000fd5b60006002820490506001821680612c0157607f821691505b602082108103612c1457612c13612bba565b5b50919050565b6000606082019050612c2f600083018661263b565b612c3c60208301856126d1565b612c49604083018461263b565b949350505050565b7f4e6f742074686520746f6b656e206f776e657200000000000000000000000000600082015250565b6000612c876013836124ff565b9150612c9282612c51565b602082019050919050565b60006020820190508181036000830152612cb681612c7a565b9050919050565b7f557365726e616d6520746f6f206c6f6e67000000000000000000000000000000600082015250565b6000612cf36011836124ff565b9150612cfe82612cbd565b602082019050919050565b60006020820190508181036000830152612d2281612ce6565b9050919050565b6000819050919050565b600067ffffffffffffffff82169050919050565b6000819050919050565b6000612d6c612d67612d6284612d29565b612d47565b612d33565b9050919050565b612d7c81612d51565b82525050565b6000602082019050612d976000830184612d73565b92915050565b600081905092915050565b6000612db3826124f4565b612dbd8185612d9d565b9350612dcd818560208601612510565b80840191505092915050565b6000612de58285612da8565b9150612df18284612da8565b91508190509392505050565b7f4d617820737570706c7920726561636865640000000000000000000000000000600082015250565b6000612e336012836124ff565b9150612e3e82612dfd565b602082019050919050565b60006020820190508181036000830152612e6281612e26565b9050919050565b7f4f6e65204e4654207065722077616c6c657420616c6c6f776564000000000000600082015250565b6000612e9f601a836124ff565b9150612eaa82612e69565b602082019050919050565b60006020820190508181036000830152612ece81612e92565b9050919050565b7f496e73756666696369656e74204554482073656e740000000000000000000000600082015250565b6000612f0b6015836124ff565b9150612f1682612ed5565b602082019050919050565b60006020820190508181036000830152612f3a81612efe565b9050919050565b7f4e487b7100000000000000000000000000000000000000000000000000000000600052601160045260246000fd5b6000612f7b826125a6565b91507fffffffffffffffffffffffffffffffffffffffffffffffffffffffffffffffff8203612fad57612fac612f41565b5b600182019050919050565b60008190508160005260206000209050919050565b60006020601f8301049050919050565b600082821b905092915050565b60006008830261301a7fffffffffffffffffffffffffffffffffffffffffffffffffffffffffffffffff82612fdd565b6130248683612fdd565b95508019841693508086168417925050509392505050565b600061305761305261304d846125a6565b612d47565b6125a6565b9050919050565b6000819050919050565b6130718361303c565b61308561307d8261305e565b848454612fea565b825550505050565b600090565b61309a61308d565b6130a5818484613068565b505050565b5b818110156130c9576130be600082613092565b6001810190506130ab565b5050565b601f82111561310e576130df81612fb8565b6130e884612fcd565b810160208510156130f7578190505b61310b61310385612fcd565b8301826130aa565b50505b505050565b600082821c905092915050565b600061313160001984600802613113565b1980831691505092915050565b600061314a8383613120565b9150826002028217905092915050565b613163826124f4565b67ffffffffffffffff81111561317c5761317b6127c1565b5b6131868254612be9565b6131918282856130cd565b600060209050601f8311600181146131c457600084156131b2578287015190505b6131bc858261313e565b865550613224565b601f1984166131d286612fb8565b60005b828110156131fa578489015182556001820191506020850194506020810190506131d5565b868310156132175784890151613213601f891682613120565b8355505b6001600288020188555050505b505050505050565b600081519050919050565b600082825260208201905092915050565b60006132538261322c565b61325d8185613237565b935061326d818560208601612510565b6132768161253a565b840191505092915050565b6000608082019050613296600083018761263b565b6132a3602083018661263b565b6132b060408301856126d1565b81810360608301526132c28184613248565b905095945050505050565b6000815190506132dc81612465565b92915050565b6000602082840312156132f8576132f761242f565b5b6000613306848285016132cd565b91505092915050565b7f4e487b7100000000000000000000000000000000000000000000000000000000600052601260045260246000fd5b6000604082019050613353600083018561263b565b61336060208301846126d1565b939250505056fea2646970667358221220ebebfcf018087042d490c9940b412897aa7b22a0473ce54fb6f8b173badcbac064736f6c63430008140033",
  "linkReferences": {},
  "deployedLinkReferences": {}
}